:020000040800F2
:1000000000200020C12C0008BD2C0008BD2C0008D9
:1000100001880008BD2C0008BD2C0008BD2C00087C
:10002000BD2C0008BD2C0008BD2C0008BD2C00080C
:10003000BD2C0008BD2C00087DE90008BD2C00087F
:10004000BD2C0008BD2C0008BD2C0008BD2C0008EC
:100050004D4F0008BD2C0008BD2C0008BD2C000829
:10006000BD2C0008BD2C0008BD2C000839EB000891
:1000700045EB0008BD2C0008BD2C00089134000899
:10008000BD2C0008BD2C0008BD2C0008BD2C0008AC
:10009000BD2C0008014C0008BD2C0008BD2C000838
:1000A000BD2C0008BD2C0008BD2C0008BD2C00088C
:1000B000BD2C0008192D040801370408B9360408BE
:1000C000B5360408E12E0408FD360408BD360408E0
:1000D000D5360408C13604086137040841370408DE
:1000E000BD2C0008BD2C0008BD2C0008BD2C00084C
:1000F000697E0008BD2C0008BD2C0008BD2C00083E
:10010000BD2C0008BD2C0008BD2C0008BD2C00082B
:10011000BD2C0008BD2C0008BD2C0008BD2C00081B
:10012000BD2C0008BD2C0008BD2C0008BD2C00080B
:10013000BD2C0008BD2C0008BD2C0008BD2C0008FB
:10014000BD2C0008BD2C0008BD2C000893970008AA
:1001500039150408BD2C000801FB030807FB030840
:10016000BD2C0008BD2C0008BD2C0008BD2C0008CB
:1001700010B5054C237833B9044B13B1044800E0A3
:1001800000BF0123237010BDC02D0020000000001F
:1001900070F7040808B5034B1BB10349034800E09E
:1001A00000BF08BD00000000C42D002070F7040847
:1001B000154B002B08BF134B9D46A3F5803A002139
:1001C0008B460F461348144A121A24F01CFD0F4B9D
:1001D000002B00D098470E4B002B00D098470020F2
:1001E000002104000D000D48002802D00C4800E05A
:1001F00000BF24F089FC2000290021F0E5FE24F056
:100200005DFC00BF0000080000200020000000008E
:1002100000000000C02D0020D86A0020000000006F
:10022000000000000F207047202808B515DC0328C7
:1002300004DC0138012808D90E200DE00123043820
:1002400003FA00F0084B1842F6D0012304220921DA
:10025000022006F017FD002008BD4028ECD1012344
:1002600004220821F4E700BF1100001008B50121A5
:100270003A2005F047F90EF0A9FB2020FFF7D4FF44
:10028000BDE808404020FFF7CFBF01213A2005F02C
:1002900039B9000010B5044692B0482268461E499C
:1002A00024F08AFC63786BB1B7EE007AE37843BB45
:1002B000DFED1A6ADFED1A7A47EE267AFCEEE77A6E
:1002C00017EE903AA27872B1B7EE007A2279EAB9C5
:1002D000DFED126ADFED137A47EE267AFCEEE77A5D
:1002E00017EE902A1344A27912A901EB820252F868
:1002F000482CEA339A4294BF6FF00200002012B0FB
:1003000010BD013B37EE077ADBB2D0E7013A37EE9A
:10031000077AD2B2DBE700BFE03804080000FA44F5
:100320000000C44300809C432DE9F8431446054671
:10033000D1E9020123F096FBD4E9002323F008FA67
:1003400002460B4606460F4623F0BAFBD4E90423C7
:1003500023F0B6FBD4E9022380468946304639466D
:1003600023F0AEFB02460B46404649464FF00008DC
:1003700023F0F0F9DFF8449042464B4606460F461C
:1003800023F010FE40B10320C4E91C89D4E91C23EA
:10039000C5E90023BDE8F8834FF00008DFF820909E
:1003A00042464B463046394623F01AFE10B9C4E99E
:1003B0001C67EBE70420C4E91C89E7E7000044C0A0
:1003C0000040554058B1C3684BB103693BB1436924
:1003D0002BB14068B0FA80F04009404270474FF0BE
:1003E000FF307047000000002DE9F84FD2E91CAB48
:1003F0002DED068B0E46054659465046144623F011
:1004000041FE08EE100A68EE088A18EE900A23F002
:10041000FFFA68EE287A41EC190B17EE900A23F0E8
:10042000F7FA41EC1A0BD6E9000123F013FB8946D9
:10043000804623F027FED4E9082308EE100A594627
:10044000504623F03DFBD4E9062323F083F9D4E999
:100450000A2306460F4651EC190B23F031FB0246E6
:100460000B463046394623F075F9D4E90C2306468D
:100470000F4651EC1A0B23F023FB02460B46304685
:10048000394623F067F942464B4623F019FBD4E97D
:10049000102306460F465046594623F011FBD4E977
:1004A0000E2323F057F9D4E912238046894651ECF4
:1004B000190B23F005FB02460B464046494623F044
:1004C00049F9D4E914238046894651EC1A0B23F0EC
:1004D000F7FA02460B464046494623F03BF90246EE
:1004E0000B463046394623F035F9D4E91823064641
:1004F0000F465046594623F0E3FAD4E9162323F079
:1005000029F968EE088A804618EE900A894623F099
:100510007FFA02460B464046494623F0D1FA68EE80
:10052000287A804617EE900A894623F071FAD4E9BA
:100530001A2323F0C5FA02460B464046494623F0EB
:1005400009F902460B463046394623F003F910A359
:10055000D3E9002306460F4623F024FD88B90EA3F5
:10056000D3E900233046394623F03AFD18B10AA7F3
:10057000D7E900670620BDEC068BC5E90067BDE83A
:10058000F88F052002A7D7E90067F4E7AFF30080F2
:1005900000000000004CDD40000000008084FE40B0
:1005A000F7B514460D461A4674B303280DD12046FC
:1005B0000193FFF7B9FE019AF0B9294604F108004A
:1005C00003B0BDE8F040FFF70FBF01284FF0000671
:1005D0004FF0000709D120460193FFF7A5FE204602
:1005E0002946E0E80267019AEAE7022806D1204698
:1005F000FFF79AFEC4E9026703B0F0BD0020C4E92A
:100600000267C4E90067F7E74FF0FF30F4E72DE930
:10061000F043804689B018460E4617461C46FFF741
:10062000D1FE054668BB61B3A27A3A44202A04D9B8
:100630006FF0050009B0BDE8F083217AD4F80C9082
:100640000129636817D0694648F08000C847607286
:100650002846B84206D194F90900002818BF6FF067
:100660000100E7E7A27A08AB0344134413F8203CE7
:1006700033540130EDE73A4631464046C847607290
:10068000E9E74FF0FF30D5E7F0B55600202E0546DC
:100690001C4689B033D81846FFF794FE60BB5DB3A3
:1006A00051B362B30B788DF80030237A9BB1012AE5
:1006B00017D8012632466946276963682878B84703
:1006C0000028607218BF6FF0010009B0F0BD2F5C08
:1006D00007F07F072F54D8B2824203F10103F6D806
:1006E000E5E768460123EF5C4770CF5C01339A422F
:1006F00000F8027FF7D1DDE74FF0FF30E5E76FF05C
:100700000500E2E71FB504461B200B4601910122BC
:100710000DF10F018DF80E00FFF779FF019B80B9F5
:100720009DF80F20240122F0300204F0300414431D
:100730000DF10F0101220DF10E008DF80F40FFF7B2
:10074000A3FF04B010BD0000F7B5044616460D46E1
:10075000002900F00E8110F0060027D01B20134660
:1007600001A901228DF80000FFF751FFF0B9A2079F
:1007700009D59DF804306A7823F0010302F00102E4
:1007800013438DF8043063070AD5AB789DF8042035
:100790005B0003F0020322F0020213438DF80430E1
:1007A00033460122684601A9FFF76EFF14F0F00FEF
:1007B00069D0714B04221B881C20ADF80030002347
:1007C0000DEB02018DF802303346FFF720FF0028C1
:1007D00059D114F0300F00F0CA80E7062A7909D504
:1007E0009DF80430E97823F0070301F007010B437B
:1007F0008DF80430A00609D59DF80430D20023F00E
:10080000380302F0380213438DF804301C2301270B
:100810008DF80030210615D5AB79112B84BF11233B
:10082000AB7102ABD919AA799DF8053002F01F020D
:1008300023F01F03134301F8043C1D23013701F883
:10084000083CFFB2620611D502ABD9196B799DF84D
:1008500007205B0003F00E0322F00E02134301F8A1
:10086000043C1F23013701F8083CFFB22B78032B0F
:1008700003D12846FFF70EFD28B933463A466846AD
:1008800001A9FFF701FF14F4E16F42D019203346AC
:10089000012269468DF80400FFF7B9FE002838D11F
:1008A000E305287A697AAA7A09D59DF80030EF79AC
:1008B00023F0010307F001073B438DF80030A70543
:1008C00009D59DF80030400023F0020300F002003B
:1008D00003438DF80030600509D59DF8003089008C
:1008E00023F0040301F004010B438DF800302107CD
:1008F00009D59DF80030920123F0400302F0400238
:1009000013438DF8003033460122694601A8FFF7F2
:10091000BBFE14F4C05F28D01A203346012201A97F
:10092000EF7A8DF800002D7BFFF771FEE8B9220504
:1009300009D59DF804307F0023F0020307F0020779
:100940003B438DF80430E30409D59DF80430AD0035
:1009500023F0040305F004052B438DF804303346DF
:100960000122684601A9FFF78FFE03B0F0BD0746DC
:1009700050E74FF0FF30F8E7283904081FB50B4661
:100980000446002847D00191012203200DF10F01F8
:10099000FFF73DFE019BE0BB9DF80F201020C2F346
:1009A0000011E170C2F34011C2F380122171627133
:1009B0000DF10F010122FFF72AFE9DF80F2002F032
:1009C0000102627228BB01221120019B0DF10F016F
:1009D000FFF71DFEE8B99DF80F20022002F001018B
:1009E0002170C2F34001C2F3C0026170A270019B8A
:1009F00001220DF10F01FFF70AFE50B99DF80F30EB
:100A000003F00102E271C3F34002C3F380032272D8
:100A1000A37104B010BD4FF0FF30FAE77E2337B565
:100A20008DF80430B62305468DF8053001220346C3
:100A30000DF106010320FFF7EAFD9DF8063004469C
:100A4000DB061FD5F0B92B4601220DF1050101A8E7
:100A5000FFF71AFE0446A8B94FF4FA606B6969689B
:100A600098472B46012202200DF10701FFF7CFFD29
:100A70009DF8073003F07E031843C0B2002818BF6A
:100A80006FF00304204603B030BD0000002330B5F2
:100A900089B004468DF80730FFF794FC054600281E
:100AA00040F0F680237A0122013B18BF01230DF1AB
:100AB0000701A3722346FFF7AAFD0546002840F070
:100AC000E7809DF80730502B02D0602B40F0E38088
:100AD00020462370FFF7A2FF0546002840F0D8808B
:100AE00001461122029003A824F08DF81522234616
:100AF00002A93120FFF78BFD9DF8083005469DF8CF
:100B0000090043EA002022F061FF0022634B22F03B
:100B1000D7FF9DF80A30029AC4E906019DF80B0040
:100B2000C4F8902043EA002022F050FF00225C4BE2
:100B300022F0C6FFC4E908019DF90C0084F8940076
:100B400022F054FF0022574B22F0BAFF9DF80E30DE
:100B5000C4E90A019DF80D0040EA032000B2A4F8A0
:100B60009600A0F5804022F041FF00224E4B22F07B
:100B7000A7FF9DF81030C4E90C019DF80F0040EA72
:100B8000032000B2A4F89800A0F5804022F02EFFC8
:100B90000022464B22F094FFC4E90E019DF911009A
:100BA00084F89A0022F022FF0022414B22F088FFB5
:100BB000C4E910019DF9120084F89B0022F016FF91
:100BC00000223C4B22F07CFF9DF81430C4E9120156
:100BD0009DF8130040EA0320A4F89C0022F0F6FEE2
:100BE0000022354B22F06CFF9DF81630C4E9140149
:100BF0009DF8150040EA0320A4F89E0022F0E6FECE
:100C000000222E4B22F05CFFC4E916019DF917006B
:100C100084F8A00022F0EAFE0022294B22F050FFC7
:100C2000C4E918019DF9180084F8A10022F0DEFE45
:100C300000224FF07C5322F043FF9DF81A30C4E9A4
:100C40001A019DF8190040EA032000B2A4F8A2009E
:100C500022F0CCFE0022134B22F032FFC4E91C012B
:100C60009DF91B0084F8A40022F0C0FE00220D4B69
:100C700022F026FFC4E91E019DF91C0084F8A5009E
:100C800022F0B4FE00220F4B22F01AFFC4E920012B
:100C9000284609B030BD6FF00605F9E70000704046
:100CA0000000103E0000F03C0000B03E0000203E7E
:100CB0000000F03D0000A03D000020400000903FFB
:100CC0000000703F0000E03B10B50B46044648B101
:100CD000014601221B20FFF79AFC2378C3F301137E
:100CE000237010BD4FF0FF30FBE7F7B5064608460E
:100CF0000D46FFF767FB00286CD1002E6AD00DF17E
:100D000002003778FFF7E0FF9DF802300446F3B1A8
:100D1000002854D11B202B46012201A98DF8030085
:100D2000FFF775FC044668B99DF80430012223F0F2
:100D300030038DF8043001A92B460DF10300FFF7B5
:100D4000A3FC044641F288306B6969689847B4BBDC
:100D5000032F37D104222B460DEB02011C20FFF795
:100D600056FC9DF80430044603F00702C3F3C203A7
:100D700033719DF80530F27003F01F03B3719DF8D5
:100D80000730C3F342037371C8B93046FFF782FAE4
:100D90000446A0B929463078FFF7B4FC044670B980
:100DA0002B460122022001A9FFF731FC044630B98D
:100DB0009DF8043013F0040F18BF6FF004042046B0
:100DC00003B0F0BD012FFAD129463078FFF79AFC25
:100DD0000446F4E74FF0FF34F1E7F0B50D4600218B
:100DE00087B00646174602A810220091ADF80410FD
:100DF00023F009FF3DB33B46062269460420FFF776
:100E000006FCF0B99DF802409DF80130240444EA44
:100E100003249DF800302A461C43CDE902409DF88A
:100E200005409DF80430240444EA03249DF803306F
:100E300002A91C43CDE9044007F118033046FFF72F
:100E4000AFFB07B0F0BD4FF0FF30FAE704F054B845
:100E500000B51B7889B05B00ADF80C300423ADF809
:100E60000E300123ADF814300DF107030493084B45
:100E70008DF807000691186803A9ADF81C2002F050
:100E80005FF8003818BF012009B05DF804FB00BF0F
:100E9000942E002000B51B7889B05B00ADF80C30B3
:100EA0000823ADF80E300123ADF814300DF107031F
:100EB0000493084B8DF807000691186803A9ADF854
:100EC0001C2002F03DF8003818BF012009B05DF881
:100ED00004FB00BF942E0020F8B5154B0D69186077
:100EE000144A154B16461D800B4601F108071C4697
:100EF00003CCBC4210605160234602F10802F6D1D7
:100F000020680C4910602379A8B213710B4AFFF7CF
:100F10001BFC0A4904460748FFF7E7FE3278084BF6
:100F2000204340B200381A7018BF0120F8BD00BF3E
:100F3000942E00209C2E00209A2E0020E02D0020D0
:100F4000982E00202DE9F04186B0054603F064FF9D
:100F50004FF4FA6003F0D0FF77232C4F01243B704D
:100F600000238DF803302A4B2A4EDFF8C880019306
:100F700028460DF1030301A93560ADF80C4002933A
:100F8000ADF81440CDF8108001F0DAFF18B101205F
:100F900006B0BDE8F08198F80030502B33D11E48E0
:100FA0001E4B476003611E4B0472C3601D4B4361BF
:100FB000FFF76CFD0028EAD10623059340F20113E8
:100FC000306801A9ADF804308DF80640FFF784FFC2
:100FD00010F0FF0FDBD1144A01AB03AD1C4603CC6C
:100FE000AC4210605160234602F10802F6D120683D
:100FF00010602379002013710C4B059A1A8001228E
:101000000B4B1A70C4E72D20C2E700BF902E0020C2
:10101000EE000400942E0020E02D0020950E000824
:10102000510E00084D0E00089C2E00209A2E002024
:10103000982E0020912E002030B51A4B89B00D4615
:101040001860194A022004A9FFF7C7FE10B1012059
:1010500009B030BD154B1B78012B03D11249144840
:10106000FFF743FE104901A8FFF788FC0028EED1E6
:101070000D4C9DF8060001280DD10B4A04A9FFF77D
:10108000ACFE04460028E2D1DDE9060122F0FAFFB9
:1010900028602046DCE7214601A8FFF76FFC002806
:1010A000E7D0D4E7942E0020E02D0020982E0020D9
:1010B0009C2E00200020704770B5144680220C4BF7
:1010C0000D461A6040EA02010A4805F055FB094E38
:1010D0002544AC4204D18022074B00201A6070BD29
:1010E0000021304605F048FB04F8010BF1E700BF92
:1010F00040E0034000000A4040D00340F8B580269D
:101100000D46094C094F04F501531E6000F07F01A4
:10111000384605F031FB04F582542946384605F07F
:101120002BFB00202660F8BD00C0034000000A40F1
:1011300008B580216B20FFF7E1FF642008F07EF9FD
:10114000002008BD73B50C46164601210DF10702BB
:101150000546FFF7B1FF50B99DF80730284623EA4E
:10116000060244EA02018DF80710FFF7C7FF02B03C
:1011700070BD000070B5264C8EB0264601AD0FCE76
:1011800014340FC50FCC06AD0FC594E80F0085E8E9
:101190000F00204B0121039306AB05934FF480739E
:1011A0005720ADF81C3004F0ADF901213A2004F0CD
:1011B000A9F9002304220321022005F063FD022186
:1011C00000230846012205F05DFD002304220121D1
:1011D000022005F057FD012304220721002005F01D
:1011E00051FD0D4801A905F07DFC0C4B0C4A002077
:1011F000C3F8CC244FF00212C3F8C424A2F5803205
:10120000C3F8C8241C22C3F8B4240EB070BD00BFBC
:101210002C390408A05A320000000A4000C00340E4
:101220000200030007B5FFF7A5FFFFF781FF0121CB
:1012300075200DF10702FFF73FFF9DF80730982B4F
:1012400012D111216A20FFF759FF01216B20FFF70E
:1012500055FF1E2008F0F2F8C0213720FFF74EFF9F
:10126000002003B05DF804FB1020FAE713B510EE80
:10127000100A22F0CDFB02460B4600201A4922F04C
:1012800049FD0022194B22F063FA22F0FBFE9FED8C
:10129000187A07EE900AF4EEC77AF1EE10FA1FDC26
:1012A000F5EEC07AF1EE10FA01D5DFED127AFCEE20
:1012B000E77ACDED017A9DF8044019202146FFF729
:1012C0001DFF601C22F092FB02460B4600200649DF
:1012D00022F020FD22F0D6FE00EE100A02B010BD72
:1012E000F0EE477AE3E700BF00408F400000F03F98
:1012F00000007F430000000010B5C0F3C1010446A8
:1013000003221B20FFF71EFF07221A2004EA020116
:10131000FFF718FF002010BD01460F221D20FFF728
:1013200011BF13B5044601211C200DF10702FFF780
:10133000C3FE9DF8073003F01800102814D005D81C
:1013400048B108280BD0012002B010BD1828FAD1EE
:101350004FF0685305E04FF062522260F4E74FF01F
:10136000645300202360EFE74FF06653F9E71FB5A1
:10137000044601A8FFF7D5FF02AA06213B20FFF78C
:101380009BFE9DF808209DF80930DDED016A43EAD7
:1013900002231BB207EE103AB8EEC77A27EE267A80
:1013A0009DF80A209DF80B3084ED007A43EA022371
:1013B0001BB207EE103A9DF80C209DF80D30B8EEE8
:1013C000C77A43EA02231BB207EE903AF8EEE77AB7
:1013D00027EE267A67EEA67A002084ED017AC4ED26
:1013E000027A04B010BD000013B5044601211B2091
:1013F0000DF10702FFF760FE9DF8073003F01800BB
:10140000102811D005D840B1082809D0012002B019
:1014100010BD1828FAD1054B03E0054A2260F6E713
:10142000044B00202360F2E7034BFAE700007A3D0B
:101430000000FA3B00007A3C0000FA3C1FB504466D
:1014400002AA06214320FFF737FE01A8FFF7CCFFD1
:101450009DF808209DF80930DDED016A43EA02237A
:101460001BB207EE103AB8EEC77A27EE267A9DF83F
:101470000A209DF80B3084ED007A43EA02231BB268
:1014800007EE103A9DF80C209DF80D30B8EEC77AA3
:1014900043EA02231BB207EE903AF8EEE77A27EE12
:1014A000267A67EEA67A002084ED017AC4ED027AEE
:1014B00004B010BD13B504460DF1070201211C2034
:1014C000FFF7FAFD9DF807101C2021F018012143B9
:1014D0008DF80710FFF712FE002002B010BD13B503
:1014E00004460DF1070201211B20FFF7E5FD9DF8E1
:1014F00007101B2021F0180121438DF80710FFF77A
:10150000FDFD002002B010BD002A14BF00230823F7
:10151000002810B514BF0024382409B944F007048A
:10152000194608226B20FFF70DFE3F2221466C2052
:10153000FFF708FE002010BD00290CBF0021E021AC
:1015400008B508B141F00101E1223820FFF7FAFDAA
:10155000002008BD13B50446042101AA3A20FFF774
:10156000ABFD0020019B236002B010BD07B5012137
:101570000DF107023A20FFF79FFD9DF8070000F0EC
:10158000010003B05DF804FB01212DE9F0430022C6
:1015900085B080460846FFF7B7FF9FED740AFFF756
:1015A00065FE0520FFF7A8FE0020FFF798FF6846BC
:1015B000FFF71AFF322007F041FF40211A20FFF702
:1015C0009DFD44216A20FFF799FD78212320FFF734
:1015D00095FD052007F032FF0221722001AAFFF7D6
:1015E0006BFDBDF804305BBA9BB2B3F5FC7FF0D362
:1015F0004FF000090C27782200212320FFF7A2FDDD
:101600000221722001AAFFF757FDBDF804504C4695
:101610006DBAADB2B5FBF7F74E464D461FFA89F3EA
:10162000BB42C0F0858096FBF7F607EE906A9DED11
:10163000007AF8EEE77A94FBF7F467EE877AC8ED64
:10164000007A07EE904AF8EEE77A95FBF7F567EE39
:10165000877AC8ED017A07EE905AF8EEE77A67EEDE
:10166000877A01AAC8ED027A02211320FFF724FD30
:101670009DF904109DF8058001AA48EA012815206B
:101680000221FFF719FD9DF904309DF8057001AAAC
:101690000221172047EA0327FFF70EFD002E9DF9D0
:1016A00004209DF80530B8BF0336002DB8BF0335C0
:1016B000002CB8BF033443EA0223A8EBA606A3EB31
:1016C000A505A7EBA40473BAC6F3072164BA6DBAE3
:1016D0001320ADF80430ADF80640ADF80850FFF720
:1016E0000DFD9DF805101420FFF708FD9DF806106C
:1016F0001520FFF703FD9DF807101620FFF7FEFCED
:101700009DF808101720FFF7F9FC9DF80910182024
:10171000FFF7F4FC402200216A20FFF713FD0022AE
:1017200011461046FFF7F0FE002005B0BDE8F0833B
:1017300001AA0C217420FFF7BFFC9DF90A209DF837
:101740000B3009F1010943EA02231E449DF90C20E4
:101750009DF80D3043EA02231C449DF90E209DF8AC
:101760000F3043EA02231D4458E700BF00007A44CB
:1017700008B5024601217520FFF79EFC002008BD38
:1017800000234FF07E52436002608360C3600261B9
:1017900043618361C3610262704791ED027AF1EEA9
:1017A000477A10B592B0CDED017A8DED037AD1ED87
:1017B000017A91ED007A00230446CDED027AF1EE34
:1017C000476AF1EE677A6A46014609A800930493D6
:1017D0000893CDED056ACDED067A8DED077A00F020
:1017E0002FFB204609AB04F12402D0ED007A93EDE3
:1017F000007A77EE877A93ED017AC0ED007AD0ED2A
:10180000017A77EE877A93ED027AC0ED017AD0ED16
:10181000027A77EE877A0C3040ED017A904203F13C
:101820000C03E2D112B010BD30B52DED028B00F1EA
:101830000C058DB02946044600F078FBFEEE007AD8
:1018400020EE270A294603A88DED010A00F02DFBA2
:101850009DED010A214606A800F027FB03A92246B8
:10186000084600F048FB06A92A46084600F043FB5C
:1018700006AA03A909A800F069FB03A9084600F01D
:1018800055FBB0EE088AF6EE008A38EE400A204694
:1018900020EE280A03A900F008FB06A9084600F07C
:1018A00045FB38EE400A284620EE280A06A900F03B
:1018B000FCFA09A9084600F039FB38EE400A09A9EC
:1018C00020EE280A04F1180000F0EFFA0DB0BDEC8C
:1018D000028B30BD38B5D0ED080A90ED070A0446FA
:1018E0000D4626F0A7FB85ED000A94ED060A26F0CA
:1018F0003FFBB1EE400A85ED010AD4ED000A94EDFC
:10190000030A26F097FB85ED020A38BD002300226A
:1019100043628362C362036343638363C26303649A
:10192000C36503664366036043608360C36003610D
:1019300043618361C361036243648364C364036579
:1019400043658366C36603677047000000000000BC
:10195000B7EE007AC7EE007A10B580ED140AC0ED3C
:10196000157A044610EE100A22F052F802460B4691
:1019700005A1D1E9000122F0CDF922F083FBA06599
:1019800010BD00BFAFF30080399D52A246DF913FEA
:1019900080ED140A704791ED007AD0ED0C7A77EE65
:1019A000877AC0ED0C7AD0ED0D7A91ED017A77EE61
:1019B000877AC0ED0D7AD0ED0E7A91ED027A77EE4E
:1019C000877AC36BC0ED0E7A0133C363704710B5DD
:1019D000044686B090ED160A684600F066FA04F1F7
:1019E0005C02694603A800F086FA03A92046FFF7C7
:1019F000D4FE2046FFF718FF204604F16801FFF7E8
:101A000069FF06B010BD00002DE9F0432DED048BF9
:101A1000884600F15C05044690ED098AD0ED0A8AFB
:101A200090ED0B9A85B02846174610EE106A00F02C
:101A300037FAB8F1000F53D0606A21F0E9FF46A3EE
:101A4000D3E900238046894622F0C0FA002847D017
:101A500043A3D3E900234046494622F0ADFA0028CB
:101A60003ED0A06A21F0D4FF3BA3D3E900238046F7
:101A7000894622F0ABFA98B339A3D3E90023404654
:101A8000494622F099FA58B3B5EEC09AF1EE10FA31
:101A9000B1EE488AB1EE680A04F1680825DB26F049
:101AA00067FA8DED010AB0EE480A26F061FAB1EE50
:101AB000400A2846424601A98DED020A039600F02D
:101AC00027FA284600F0DFF90FB900236366D4ED4A
:101AD000147AB6EE000A284680EE270A00F0F8F9DC
:101AE00005B0BDEC048BBDE8F08326F041FA10EEA2
:101AF000100A21F08DFF02460B461BA1D1E900011F
:101B000021F026FE22F0BEFAB0EE480A019026F03F
:101B10002FFAB1EE400A30468DED020A21F078FF2F
:101B200011A3D3E9002321F015FE22F0ABFA0390B4
:101B300001A800F0A8F94246284601A900F0E8F9FA
:101B4000284600F0A0F9D4ED187AF1EE677AC4EDDA
:101B5000187AB9E7AFF30080C139234A7B83EFBF1E
:101B6000C139234A7B83EF3F182D4454FB210940A0
:101B700010B50446243000F093F904F1300000F071
:101B80008FF9002304F14400E36300F089F904F1C4
:101B9000680000F085F904F15C0000F081F920464E
:101BA000BDE81040FFF7ECBD37B5044600F062F821
:101BB0000128054629D104F124010846019100F0CD
:101BC000BBF820460199FFF7E6FE04F14401084600
:101BD000019100F0BFF8D4ED117AF1EE677AC4ED0F
:101BE000117AD4ED127AF1EE677A20460199C4EDAC
:101BF000127AFFF7ECFE9FED060A002229462046E6
:101C000003B0BDE83040FFF7FFBE03B030BD00BFFA
:101C100000000000F0B50226104D114885B02E706E
:101C2000FFF774FEFFF7FEFA2F46044680B90DF168
:101C30000300FFF79DFD044650B9032301A82B7054
:101C4000FFF7A2FC044618B92E70204605B0F0BD7F
:101C5000FFF730FA00233B70F7E700BFB42E0020F7
:101C6000B82E00200022024B1A70FFF723BA00BFE3
:101C7000B42E0020014B1878704700BFB42E00200E
:101C80000121022330B51B4D85B0002208462B7080
:101C90008DED010AFFF738FC9DED010AFFF7E6FA2A
:101CA000154C082084ED000AFFF736FB0320FFF7F0
:101CB00023FB0020FFF7FEFB0020FFF710FC322083
:101CC00007F0BCFB00210120FFF736FC03A8FFF75B
:101CD00041FC94ED000A0948FFF75AFE94ED000A12
:101CE0000648FFF735FE0548FFF742FF01232B703A
:101CF00005B030BDB42E00202C2F0020B82E0020BF
:101D000007B500210846FFF717FCFFF7ABFFFFF709
:101D100081FF054B019093ED000AFFF7B1FF019899
:101D200003B05DF804FB00BF2C2F00200148FFF733
:101D30003BBF00BFB82E0020054A1278012A04D00C
:101D400000220260426082607047FFF710BB00BF54
:101D5000B42E0020054A1278012A04D00022026025
:101D6000426082607047FFF769BB00BFB42E00205D
:101D700008B5094B1B78012B01D0002008BDFFF7E7
:101D8000F5FB064A1368013313600028F5D0044AB6
:101D9000136801331360F1E7B42E0020AC2E00204D
:101DA000B02E0020000000002DE9F0471EA7D7E963
:101DB00000670FF27C09D9E900898246DAF8000051
:101DC00021F026FE32463B4604460D4622F0FEF840
:101DD00098B90FF26409D9E9008915A7D7E9006716
:101DE000DAF8000021F014FE42464B4604460D4648
:101DF00022F0D8F860B9BDE8F08742464B4620464D
:101E0000294621F0A5FC22F03DF9CAF80000D5E7EB
:101E100032463B462046294621F09CFC22F032F90E
:101E2000CAF80000DCE700BF182D4454FB2109402C
:101E3000182D4454FB211940182D4454FB2109C08E
:101E400070B501F1240502F10C0613460446F3ECCB
:101E5000017A91ED006AD1ED016A93ED027A67EEA5
:101E6000867A46EE877AD1ED026A93ED057A46EEE0
:101E7000877AB342E4EC017AE9D10C318D4200F16A
:101E80000C00E2D170BD10B50446FFF78DFF201D98
:101E9000FFF78AFF04F10800BDE81040FFF784BF98
:101EA00000230360436083607047D1ED007A67EEE2
:101EB000807AC0ED007AD1ED017A67EE807AC0EDCC
:101EC000017AD1ED027A27EE800A80ED020A70478E
:101ED000D0ED007A67EE807AC0ED007AD0ED017A1D
:101EE00067EE807AC0ED017AD0ED027A27EE800AA3
:101EF00080ED020A704701F10C03F1EC017AB2ECBB
:101F0000017A77EE877A9942E0EC017AF5D1704751
:101F100001F10C03F1EC017AB2EC017A77EEC77AA9
:101F20009942E0EC017AF5D1704700009FED060A76
:101F300000F10C03B0EC017AF1EC017A984207EE63
:101F4000270AF7D1704700BF0000000092ED016A38
:101F5000D1ED027AD1ED016A92ED027A67EE867ACE
:101F600056EE877AC0ED007A92ED026AD1ED007AE2
:101F7000D1ED026A92ED007A67EE867A56EE877AA4
:101F8000C0ED017AD1ED017A92ED006AD1ED006ADF
:101F900092ED017A67EE867A56EE877AC0ED027A84
:101FA00070470000F0B54B1E012B07460E468BB064
:101FB0007CD83F4D01AC0FCD0FC40FCD0FC42B68A3
:101FC00001213A20236003F09DFA0121292003F02A
:101FD00099FA002301220421032004F053FE032177
:101FE00000230846042204F04DFE042200230521AC
:101FF000032004F047FE05238DF8043001238DF8FB
:1020000018304FF44073012E01A92A484FEA871770
:1020100008BF8DF82360ADF82030039705F0B6FABD
:102020000D22254B1A60254A1A614FF003125A619E
:1020300002F500325A6002F069FD0021204802F0EA
:102040000FFD044618B1012420460BB0F0BD1D4A17
:10205000012ED37823F03C0343F03403D370D37CB8
:1020600023F03C0343F03403D37412D101461648E5
:1020700002F0F6FC0028E6D1144AD37823F03C03A2
:1020800043F03403D370D37C23F03C0343F0340398
:10209000D3740F4B0F4A1E70002313700E4A137037
:1020A0000E4A137001220E4B1A70CDE72124CBE7A4
:1020B0006039040800C0054020C703400300040045
:1020C000342F002004200020382F0020242000205E
:1020D0003E2F00203F2F0020582F00203D2F0020B2
:1020E0003C2F0020184B73B51B78002B28D0174CC1
:1020F00025783DBB164A174E1168174813693140C1
:102100000143116033401549034315489160136141
:1021100091610095134B1449006802F02BFD134B9D
:102120001B78012B07D1124800952B46114A124902
:10213000006802F01FFD01230020237002B070BD73
:102140001120FBE70220F9E73C2F00203D2F002063
:10215000042000200F80FFCFF07F00304C2F0020A4
:10216000342F0020AD220008442000203E2F002004
:10217000382F00202420002054200020184B2DE967
:10218000F0411B7805460C46174613B3154B1B78D8
:102190000BBB154B1A789846EAB9144E3178614357
:1021A000B1F5006F19D8124B1B780BB9FFF79AFFE6
:1021B0003178104B4C431C600F4B05EB44041D6001
:1021C0005C600E4B00201F60012388F80030BDE8E2
:1021D000F0811120FBE70220F9E72120F7E700BF9B
:1021E0003C2F00203F2F0020582F00203E2F0020A2
:1021F0003D2F0020442F0020502F0020302F0020A2
:1022000010B50C4C227892B10B4B186802F0D8FC38
:102210000A4B1B78012B03D1094B186802F0D0FC44
:102220000020084B20701870074B187010BD02205A
:10223000FCE700BF3D2F0020342F00203E2F002060
:10224000382F00203F2F0020582F002038B5134D85
:10225000FFF7D6FF2846002405F01EF90321234688
:10226000224608466C6504F00DFD234622460421F3
:10227000032004F007FD224605212346032004F035
:1022800001FD074B186802F01BFC064B186802F0B2
:1022900017FC054B20461C7038BD00BF00C0054030
:1022A000342F0020382F00203C2F00203B48F8B569
:1022B0000378002B42D03A4C11F0010F04F11003C7
:1022C00008BF1946374E384B32681D6818BF214683
:1022D000AA422CD2CB786FF30513CB70334B1B681B
:1022E00003EB42038B60AB1AB3F5006F0B8817D971
:1022F00040F2FF7502F5006265F30E130B80326049
:10230000E37803F03003302B08D1E37C03F0300393
:10231000302B03D100230370FFF772FF0120F8BDBB
:102320006F1EBA1A62F30E130B803560E8E70A6875
:102330001F4B13430B601F4B8B60E1E71E4B1B7859
:10234000002BEBD0C943164801F0010300EB031446
:10235000E2781D01C2F30112032A0FD1124A465935
:102360001268013AC2F30A01144A324042EA0112E9
:102370004251134A52F82330A360CFE7114A126842
:10238000002ACBD01049084809780068B0FBF1F169
:102390000B4850F823009047C0E700BF3F2F0020B4
:1023A00004200020482F0020442F0020402F002030
:1023B000F07F00304C2F0020582F00200F80FFCFDF
:1023C000502F0020302F00203E2F002010B5144643
:1023D000042288B08DF804300DEB0203049301232E
:1023E000ADF8143002AB069302234900ADF80C108F
:1023F00003A9ADF80E20ADF81C3000F0A1FD50B9D6
:102400009DF809309DF8082003F0FC0303EB02233C
:10241000236008B010BD00233120F9E72DE9F04119
:102420001D46E523074688461646FFF7CFFFC0B98D
:1024300043F6095433682A465C43640BA4F5BB5445
:10244000103CE023414638463460FFF7BFFF40B9F7
:1024500045F2CD522B685A435213A2F53742023A45
:102460002A60BDE8F081042310B588B0ADF80E30C5
:102470004CF6FC13ADF800300223ADF8143001AB7C
:10248000069308234900ADF80C1003A91446CDF8B3
:1024900010D0ADF81C3000F053FD28B914B19DF8F0
:1024A00004302370012000E0002008B010BD70B59A
:1024B000002205460E46FFF7D6FF044608B100206D
:1024C00070BD502006F0BAFF224631462846FFF77D
:1024D000CAFF0028F3D11020F2E70000000000003E
:1024E00008B510EE100A21F093FA11A3D3E90023E6
:1024F00021F010FC21F07EFD002815D003464FF09E
:102500000002B8BF00F10F03C3F30713012B07D17B
:1025100011098B4090FBF3F010381043C0B208BD96
:1025200010325B08D2B2F1E77F20F8E7AFF300800A
:102530007B14AE47E17A743F10B5044610EE100AE2
:1025400021F066FA15A3D3E9002321F0E3FB002272
:10255000114B21F0FFF821F04DFD14B10A2390FB3F
:10256000F3F0B0B1B0F5E06FA8BF4FF4E060082819
:10257000B8BF08200023C0F3C702012A05D1DA083A
:10258000104108381843C0B210BD08335208DBB2FE
:10259000F3E73F20F8E700BF0000E03F7B14AE47C1
:1025A000E17A743F00B50C4B89B0039301238DF899
:1025B0000710ADF81430ADF81C3003A90DF1070376
:1025C0000493069200F0BCFC002814BF31200020C8
:1025D00009B05DF804FB00BF6000040073B50C4651
:1025E0000DF10702C1210546FFF7DCFFB0B99DF8E8
:1025F0000760C221330203F4FE43284623800DF115
:102600000702FFF7CFFF48B922889DF80730134330
:10261000A3F580432380F30908BF362002B070BDC4
:1026200000B50E4B89B003930123ADF81430ADF81B
:102630001C300DF107038DF80710049303A90DF169
:1026400006038DF80620069300F07AFC002814BFDC
:102650003120002009B05DF804FB00BF60000800D5
:1026600013B5C9210DF107020446FFF79BFFE8B936
:102670009DF80720C92122F0030242F00102204602
:102680008DF80720FFF7CCFF80B9C42120460DF15B
:102690000702FFF787FF48B19DF80720C42102F029
:1026A000F80220468DF80720FFF7BAFF02B010BDF0
:1026B00073B50E461546E3210DF107020446FFF7F8
:1026C00071FFA0B99DF80730DB0712D43246E12133
:1026D0002046FFF7A5FF50B90222E3212046FFF76D
:1026E0009FFF20B92A46E2212046FFF75BFF02B098
:1026F00070BD0420FBE700007FB527240E4B054684
:1027000018689B880290ADF80C3002AE214628462E
:1027100001340DF10702E4B2FFF7CAFF48B92846B9
:102720009DF8072016F8011BFFF77AFF08B92D2C3A
:10273000ECD104B070BD00BF8439040873B51446F1
:102740000DF1070205460E46FFF72CFF40B99DF834
:1027500007203146224328468DF80720FFF760FF07
:1027600002B070BD73B516460DF1070204460D4662
:10277000FFF718FF48B99DF80730294623EA0602FB
:1027800020468DF80720FFF74BFF02B070BD000018
:10279000002310B5094A86B001A9CDE90123ADF89F
:1027A0000C3000F0CDFB044628B90A2007F026F8CB
:1027B000204606B010BD3120FBE700BF60000100DD
:1027C00038B504460D46FFF7E3FF0346002854D111
:1027D0000222C4212046FFF7B1FF034600284CD156
:1027E00095ED000AB5EE400AF1EE10FA1FD1D5EDD5
:1027F000017AF5EE407AF1EE10FA18D12B7AB3B9DE
:102800006B7AA3B90822C4212046FFF7ABFF034629
:1028100098BB0122C9212046FFF790FF034660BB09
:102820002046BDE838400222C421FFF79BBFFFF7D6
:1028300057FE6B7A00F07F00002B0CBF0022802235
:10284000C62102432046FFF7EBFE0346A8B995EDEB
:10285000010AFFF771FE2A7A00F03F0040EA821277
:10286000C7212046D2B2FFF7DBFE034628B9082273
:10287000C4212046FFF762FFC9E7184638BD73B58B
:1028800004460D461646FFF783FF00BBC0212046D5
:102890000DF10702FFF786FEC8B99DF80730C42185
:1028A00003F00F021B09327020462B700DF1070256
:1028B000FFF778FE58B99DF80720C42122F00702DF
:1028C00042F0020220468DF80720FFF7A9FE02B071
:1028D00070BD13B50446012006F0B0FD2046FFF799
:1028E00057FF60B920460DF107020DF10601FFF711
:1028F000C6FF20B99DF80630012B18BF102002B08A
:1029000010BD73B504460D461646FFF741FF00287B
:1029100055D1C42120460DF10502FFF743FE0028E2
:102920004DD19DF80520C42122F00F0242F00A0289
:1029300020468DF80520FFF773FE00283FD1442282
:10294000CD212046FFF76CFEC8BB9DBBC4212046AD
:102950000DF10502FFF726FE88BB9DF80520C42176
:1029600022F00F0242F00C0220468DF80520FFF7FE
:1029700057FE20BBC42120460DF10502FFF712FED1
:102980009DF90530002BF4DBC8B920460DF1060196
:10299000FFF724FE98B9BDF90630C3EB431203EBF1
:1029A000820375B10A2293FBF2F320463360FFF7EE
:1029B00057FE04E02046FFF79FFE0028C6D002B075
:1029C00070BD6422EFE7000045F2140313B599428D
:1029D000144694BF0021012101AAFFF792FFDDED0B
:1029E000017ADFED056AF8EEE77A87EEA67A84EDE4
:1029F000007A02B010BD00BF00007A4410B50F4B42
:102A000088B0039301AB04930123ADF8143002ABFB
:102A1000069302238DF8041003A91446ADF81C3068
:102A200000F08EFA40B99DF809209DF8083003EBBC
:102A30000223238008B010BD3120FBE752000400C0
:102A400013B50C460DF106020021FFF7D7FFE8B9D8
:102A5000DFED1C7A9FED1C7ABDF8062012F4805F32
:102A600047FE877A02F4806102F47073120558BF42
:102A700077EEA77A09B977EEA77AC02B13D007D8DB
:102A8000402B13D0802B0CD0ABB1232002B010BD53
:102A9000B3F5007F12D0B3F5407FF6D19FED0B7AEE
:102AA00006E077EEA77AC4ED007AEFE7B1EE007AA0
:102AB00067EE877AF7E7B2EE007AF9E7B3EE007ACD
:102AC000F6E700BF17B7D13917B7513B00000042F6
:102AD00000B50F4B89B0039302AB04930323ADF809
:102AE000143001AB069300238DF808108DF80920EF
:102AF00003A9120A8DF80A20ADF81C3000F020FA64
:102B0000002814BF3120002009B05DF804FB00BF8D
:102B1000520001002DE9F34190460DF106020546F1
:102B20000E461F46FFF76AFF68B9BDF8064007EA80
:102B3000080224EA0704224392B231462846ADF83F
:102B40000620FFF7C5FF02B0BDE8F08173B5002194
:102B50000DF106020646FFF751FF044608BBBDF81B
:102B60000620014602F4604242F001023046ADF810
:102B70000620FFF7ADFF044698B902460121304612
:102B8000FFF7A6FF2246054602213046FFF7A0FFC9
:102B900022460543072303213046FFF7BBFF45EAE2
:102BA0000004204602B070BD012381EA0302002127
:102BB000FFF7B0BF134600290CBF00224FF480522C
:102BC000022B06D142F480624FF4E0530021FFF75C
:102BD000A1BF042B02D142F44062F5E7012BF3D0F0
:102BE0002120704738B504460A200D4606F026FC21
:102BF0002046FFF7ABFFA0B9012220461146FFF7A0
:102C0000D9FF70B92DB92046BDE838400121FFF742
:102C1000CBBF042301461A462046FFF77BFF00285E
:102C2000F1D038BD73B50D4601AA04210646FFF761
:102C3000E5FEBDF8044070B9304601A9FFF700FF7A
:102C400048B907EE904A9DED017AF8EE677A67EE93
:102C5000877AC5ED007A02B070BD0023036070472B
:102C600003680B6001607047036803B970478B42CB
:102C700002D10B68036070471846F5E707B50122DB
:102C80008DF807000DF10701002005F007F903B0EA
:102C90005DF804FB0146002005F038B905490A68D3
:102CA0001318054883428CBF4FF0FF320B6010466B
:102CB000704700BF6420002000000420FEE70000F1
:102CC00008B500F013F8064B064A07498B4201D3BA
:102CD000FDF76EFA52F8040B43F8040BF6E700BF59
:102CE0000020002078F70408C02D0020044B054A7E
:102CF0009A60D3F8882042F47002C3F888207047A5
:102D000000ED00E000000008014B1868704700BFAC
:102D10006C200020014B1860704700BF6C20002021
:102D2000084B1B6F03F00703022B04D0032B05D0C5
:102D3000012B05D0FEE7044B18687047034BFBE7F7
:102D400003487047008000406C2000207020002065
:102D5000002D310108B5FFF7E3FF054B1A6FC2F3F1
:102D60000332531CB0FBF3F0024B186008BD00BFE8
:102D700000800040682000200048704700B4C40470
:102D8000014B1868704700BF70200020054B186089
:102D9000054B1B6F03F00703032B01D1FFF7DABFCD
:102DA000704700BF70200020008000400020704766
:102DB00000487047002D31014FF094439868C0F3EC
:102DC00004400C2822D8DFE800F00921212121212C
:102DD000071719211B1D1F000F4870479B6803F040
:102DE0004073B3F1807F13D0B3F1007F12D00B4A50
:102DF000002B08BF104670470948704709487047C4
:102E000009487047094870470948704700207047D3
:102E10000848704708487047405DC60000093D00FB
:102E20000024F400C0EA210180BA8C010048E801C6
:102E3000005A620280841E0040420F004FF400409E
:102E400070474FF47A707047014B1868704700BFA5
:102E5000742000202DE9FF4103680446B3F1964F2A
:102E600004D0354A934251D12F2000E02E20012179
:102E700002F048FB01230A226179207903F002FF66
:102E800001230A22E179A07903F0FCFE092701263B
:102E90002A4D4FF030082279637908FB025206FA76
:102EA00003F302F501521360642006F0A7FC2379B6
:102EB000627908FB035306FA02F203F58253642099
:102EC0001A6006F09BFC013FE3D12068B0F1964FF9
:102ED0001FD10323C5F8E8346279237943EA02431A
:102EE000C5F8EC34E279A37943EA0243C5F8F0343B
:102EF00040F20113ADF80030E36869460293A3681D
:102F00000193237C8DF80C3003F040FF04B0BDE842
:102F1000F081094B9842EBD10323C5F8F83462796C
:102F2000237943EA0243C5F8FC34E279A37943EA02
:102F30000243C5F80035DBE70080064000C00340CF
:102F400038B5054604F052F8044C012801D1013C83
:102F500000D138BD284603F03BFFF6E7E1930400BB
:102F6000D0E900031847836800681847C368006801
:102F7000184703690068184710B5044601213A2034
:102F800002F0C0FAA3782078B3FA83F304226178C0
:102F90005B0903F077FE002010BD000010B5012290
:102FA00041780378847830208A40054900FB031378
:102FB0001CB903F501531A6010BD03F58253FAE7FB
:102FC00000C0034010B50122417803788478302096
:102FD0008A40054900FB03131CB903F582531A60AC
:102FE00010BD03F50153FAE700C003400122417808
:102FF00003788A4030215943014B5A50704700BF33
:1030000040F0034030230246017840784B430549A5
:1030100010335B58C34003F0010093780BB980F084
:103020000100704730C00340044B054A043850F893
:10303000041F43F8041B9342F9D170476400004D0C
:103040007801004D10B5084C237A53B9E360074B63
:10305000236001F0F1FC4FF40042054B1A6001239C
:103060002372002010BD00BF782000202930000806
:1030700000E100E0092370B50C460546084EC0F893
:10308000103133690133336101F0E4FC21462846F5
:10309000336898470CB101F0DFFC002070BD00BF21
:1030A0007820002001F0D8BC07EE902AF8EEE77AED
:1030B000F3EE677A17EE902A07EE903AF8EEE77A89
:1030C000F3EE677A17EE903A10B500EB810420F822
:1030D0002120638010BD07EE902AF8EEE77AF3EE28
:1030E000677A17EE902A20F8212040F2000200EBC8
:1030F00081035A80704710EE102A20F8212040F2F8
:10310000000200EB81035A80704710EE102A20F86D
:10311000212010EE902A00EB81035A807047B3EE15
:10312000400AF3EE600A10EE102A20F8212010EE7B
:10313000902A00EB81035A8070470000F0B5BDF87B
:103140001850184E099F013D06EA0747C5F30905C7
:1031500000EB01143D43A562BDF81C500A9F013DE0
:1031600006EA0747C5F309053D43E562BDF814408B
:103170001D03013C05F44055C4F309042C43089D8C
:1031800013F0040F06EA054644EA060401F10201C1
:1031900000EB011318BF44F4804409015C60425005
:1031A000F0BD00BF0000FF0F30B50124002587B03F
:1031B000CDE904540395BDF828500094CDE90145AC
:1031C000FFF7BCFF07B030BD70B50124002686B004
:1031D000BDF82C50CDE90454CDE90256BDF8285075
:1031E000CDE90045FFF7AAFF06B070BD30B50C254C
:1031F00005FB01019DF81440C1F8B030DDE9033052
:103200000343C1F8B430120514B9C1F8B82030BD79
:1032100042F00042F9E770B5059E013A01F10E0552
:1032200042EA063240F835200C2202FB03059DF8E5
:103230001040D5F8B860A3424FEA410106D10322FD
:1032400002FA01F13143C5F8B81070BD01238B407B
:103250003343C5F8B830022302FB040403FA01F13A
:10326000D4F8B8300B43C4F8B830EEE737B50446AD
:10327000D0F87002062804DD0AB12123136003B0E0
:1032800030BD4B1EB3F5806FF6D200250130C4F877
:103290007002CDE900558AB22B46C1B2D4F868025B
:1032A000FFF7B9FFD4F87022D4F8683202F10E01AA
:1032B00003EBC1035D60D4F87832D4F87402591C72
:1032C0009333C4F8781244F82320012304EB8004DC
:1032D000520003FA02F2D4F82C321343C4F82C3211
:1032E000CDE74FF0FF332022C0E99C33C0F878329D
:1032F000002100F50A7021F086BC30B5D0F8744288
:10330000049D062C03DD0DB121232B6030BD0C255F
:103310000134C0F87442D0F86802E4B205FB04003E
:10332000C0F8B020039A09051343C0F8B430C0F8C0
:10333000B810EBE72DE9F0410429BDF818C0BDF83D
:103340001CE0BDF82080DDE90976DDE90B5404D9E5
:103350000CB121232360BDE8F081BCF5806F14D847
:10336000BEF5806F11D8B8F5806F0ED807F50067ED
:10337000B7F5805F09D206F50066B6F5805F04D226
:1033800005F50065B5F5805F03D3002CE3D0282355
:10339000E0E7CDE907E8CDF818C0BDE8F041FFF758
:1033A000CDBE30B589B00D9C00250694012403954F
:1033B000CDE90454BDF830500094CDE90145FFF744
:1033C000B9FF09B030BDD0F8783210B503F19201E1
:1033D00050F821400221D0F87422640000EB8202F0
:1033E00001FA04F4D2F82812013B2143C2F8281252
:1033F000C0F8783210BD0000F8B500210C25044655
:10340000D0F8743200F50A76DFF854C0D0F86802BC
:103410008B4217DA05FB030393F8BB20002142F02F
:10342000800283F8BB20FFF725FE4FF48A72D4F8A0
:103430006C3283F00103C4F86C3202FB0343C4F81E
:103440006832F8BD05FB0107D7F8B82056F804EB41
:1034500002EA0C0242EA0E02C7F8B8200131D7E7AF
:103460000000FFFF0023C0E99A037047D0F87832CC
:1034700010B5933350F82340D0F86832033103EB92
:10348000C403186F890002FA01F10843186710BDE0
:103490004FF09A4210B5D469136A1C40E1070DD56C
:1034A0000121124B1960124B5069196801441960CF
:1034B00091695A680A445A6001F0D0FA620308D54B
:1034C0004FF48022094B1A60094A136803F1807394
:1034D0001360230308D54FF40022044B1A60044AFA
:1034E000536803F18073536010BD00BF1C20004D72
:1034F0005C2F00202DE9F04F12F1800F04460D469D
:1035000016461F4685B001D17F2B05D0A02D11D8BE
:1035100020466119814202D105B0BDE8F08F90F9D3
:1035200000309E4202DD06700130F3E79F42B8BFD3
:103530000770F9E74FF0000840F20A293346324697
:1035400000213A48FFF7B0FD3B463A460121374893
:10355000FFF7AAFD434642464146CDE9018833487C
:10356000CDF80090FFF742FE40F20B23304A0121D4
:10357000CDE900322D4840F2D5122E4BCDF808800F
:10358000FFF734FE01212C4B40F2D512CDE9013179
:1035900026480221294BCDF80090FFF727FEDFF8DF
:1035A0008C80B5F5006FAB4628BF4FF4006B2BF055
:1035B000030A4FEA5A091FFA89F922460523002116
:1035C0004046CDF80090FFF7EFFD2246052301218C
:1035D0004046CDF80090FFF7E7FD0021022340466A
:1035E000CDE90031CBF38F020123FFF714FEA5EBE9
:1035F0000A0501214046FFF73DFD9F2D5444D0D8D8
:103600004DB12046611910F9013B9E4208DD00F8DA
:10361000016C8142F7D105B0BDE8F04FFFF742BD24
:103620009F42B8BF00F8017CF3E700BF642F002081
:103630000000A021000102200000B02100010330A1
:103640002DE9F04F2DED068B8268D1B03692026BDA
:10365000436C3792C26A2993389240F20002ADF867
:103660003A218269836D409200223493436D04466F
:103670003593036D90ED178A1D93C36CD0F840907D
:10368000109390F84830C56B2F914F922BB91D9B2A
:10369000109A13431CBF21234F93349B012B02D15B
:1036A000359B012B01D021234F932F9B4BB1DDE99B
:1036B00036321343389A2B431343DB0744BF21238D
:1036C0004F934F9B2293002B40F09380A448FFF729
:1036D000C9FE2368D4ED188A39936368002D0E93D0
:1036E0006369BAEEE88A0B93E368B3EE488A2A93DB
:1036F00023691193636B1E93A36B1E9A1293E36964
:103700002B93236A13932A9BA3EB0203109A13446F
:1037100093FBF9F34393DDE91132A3EB02031D9A06
:103720001344299A93FBF2F30B9A4493139B03FBE4
:1037300002F31693129B0E9A03FB02F31E9A179341
:1037400003FB02F3119A2D930E9B03FB02F3299ABC
:1037500019930E9B03FB02F34593199B2A9A09FBCD
:1037600003F34693199B03EBD3734FEA6303499327
:103770002D9B03EBD3734FEA63034A93179B03EB31
:10378000D3734FEA63034B93BDF82C30189308BFF3
:1037900001233F930DF59D7318BF2B460AEE903A17
:1037A000119B53430E9A53432B9A4C93139B5343B1
:1037B0000B9A53433E93229B0D9340F2002309EE54
:1037C000103A0D9B139A934219DB2F9B8BB1FFF795
:1037D00069FC399B2B990B985943139B94F924202E
:1037E0004B431946484394F928300146A069FFF736
:1037F00081FE229851B0BDEC068BBDE8F08F299B6D
:103800000D9A1D995A431D9B1298D31A8A1A22EABF
:10381000E2721492119A1499D21A9042D4BFC1EB59
:103820000001C1EB0201002B2EDB0D98449D129E7E
:103830009642D8BF284602462492249A0D98121A1E
:10384000013209920E9A4A4314992C92349A01FB40
:1038500002333C932C9B099903EBD3735B10479382
:10386000DDE945320129D8BF1346289303EBD37312
:103870005B10489300230A930A9B2B9A934205DB23
:10388000249B01330D939CE70D9AD5E70A9B109A70
:1038900009FB03F3991AD31A2A9A1E9823EAE373B1
:1038A000521A9042D4BFC3EB0007C3EB02070029B2
:1038B00054DB0A9943981E9D9542D8BF01460A469B
:1038C0002592259A0A99521A239201321592239A27
:1038D000002A54D0099A012A51DDB94500F0A58289
:1038E00040DD4FF0010BA9EB070A159A012A07DD0D
:1038F00009FB0BF207EB0A018A4201D028224F9202
:10390000159A14995A45A8BF5A464192169A02FB35
:103910000BF23A92129A02FB03120E994A4315993E
:103920003192099A012AD8BF0A4692B231993D9242
:10393000379A0A4409EE902A0A9A109902FB09F272
:10394000521A359903FB01232E9300230F930F9BEB
:10395000419A934218DB259B01338CE70A9AAFE723
:103960007830002097FBF9F209FB127A9346BAF1FE
:10397000000FBAD002F1010BA9EB0A0AB5E74FF02C
:10398000010B4FF0000ABBE70F9B159A9342C4BF8F
:1039900028234F93239B0F9A01339B1A93FBFBF22F
:1039A0000BFB1233002B18BF0132012A099B1F9217
:1039B00000F03582012B08DCBAF1000F01D028237A
:1039C0004F93CDF830A01B9706E0CDF830A00C9BAC
:1039D0001F9AFB1853431B930C9B119A013B002B1E
:1039E0003B93CCBF4FF4877300233C990AEE103A07
:1039F0002E9B02FB03130E9A0D9953430A9A1C93B4
:103A00000F9B1344139A02FB03130B9A5343219306
:103A100000232693269B399A93420ADB0F9B01339E
:103A20000F932E9B4B442E9391E700231B970C93EF
:103A3000D2E73A9BB3F5006F0ADB169B0BF1FF3818
:103A4000B3F5006F01DB28234F93169B209303E00F
:103A50004FF000083A9B20931F9B199A08FB0333F1
:103A60004293219B002BBCBF28234F930B9B002B21
:103A7000BCBF28234F93209B002BBCBF28234F9310
:103A8000179B13432D9A13432C9A1343289A1343DD
:103A9000319A13431C9A134313F001031A9300F055
:103AA0008D81289B199A30932D9B3393179B3293CA
:103AB0002C9BB54D279328464D92FFF712FC1A9B7D
:103AC0000126002B0CBF052301234FAA06924D9A15
:103AD000BDF89C100492309A02910392BDF86C20BC
:103AE000309101923D9A1C990092369A05960A44AB
:103AF000D5F8680200214D93FFF71CFC4FABCDE9D0
:103B00000563329BBAB20493339B01920393309BBB
:103B100019EE902A0293189B31460093D5F868025B
:103B20004D9BFFF707FC4FAB01933F9B1AEE902A8A
:103B300000930223D5F868021946FFF732FC4FAB19
:103B40000193189B03210093389A0223D5F8680249
:103B5000FFF727FC4FABCDE905630B9B219904933D
:103B6000209B409A0393189B0A440293BDF824308B
:103B700004210193BDF808310093D5F8680233465B
:103B8000FFF7D8FBB0EE490A0021D5F86802FFF72D
:103B9000B2FA1A9B002B40F01A81F0EE480AB0EE00
:103BA000480A3146D5F86802FFF7AFFAB8EEE80ADE
:103BB000D5F868020025B3EE400A0221FFF79BFA10
:103BC0000B9971484FAAFFF751FB4FAB41216F4A48
:103BD0006D48019300954EF62C43FFF78EFB099933
:103BE00069484FAAFFF742FB1F9967484FAAFFF7A2
:103BF0003DFB394664484FAAFFF738FB27996248D6
:103C00004FAAFFF733FB4FAB40F2CD11CDE9005384
:103C10005F4A604B5C48FFF770FB4FAB40F2D71137
:103C20005D4ACDE9005358482B46FFF766FB5648DE
:103C3000FFF7C9FB022229465348FFF717FC02226F
:103C400001215148FFF712FC4F48FFF7BCFB099BCD
:103C5000012B04DC012229464B48FFF707FC0C9B93
:103C6000002B04DD022200214748FFF7FFFB1A9BCF
:103C7000002B40F0B4800C9B4A219E1E4FAB019359
:103C80001A9B464A009340481AEE103AFFF735FB5C
:103C9000731E1A934FF04F63002E4FAD009340F206
:103CA000CD11CCBF4FF4877300233D4A36480195B0
:103CB000FFF723FBB8F1000F0FDD2A4641463248DB
:103CC000FFF7D4FA00223048CF2311460195009225
:103CD000FFF713FB2C48FFF776FB4FF000084FADC2
:103CE00043464121294A28480195CDF80080FFF735
:103CF00004FB1A9B012B74D119462A462248FFF770
:103D0000B5FA434642464146CDE900851E48FFF7D5
:103D1000F4FA1D48FFF757FB022241461A48FFF705
:103D2000A5FB1948FFF74FFB022204211648FFF7B5
:103D30009DFB099B012B04DD012200211248FFF7A6
:103D400095FB1148FFF73FFB04220F481146FFF790
:103D50008DFB01220C481146FFF788FB042202214B
:103D60000948FFF783FB042203210748FFF77EFB86
:103D70000548FFF728FB4F9B002B4ED12F9B8BB1A3
:103D80000148FFF739FB0DE07830002000000450B7
:103D9000060001600E7E0800060705500000055071
:103DA00005030270269B4C9A013326931C9B1344F7
:103DB0001C933E9A219B134421932BE6489B3093FE
:103DC000DDE9492333934B9B3293479B71E6B0EE79
:103DD000480A3146D5F86802FFF78DF9E6E63B9EC2
:103DE00056E79EDD2A46B11E1248FFF73FFA2A46E3
:103DF00001211048FFF73AFA424641464346CDE9D1
:103E000000850C48FFF779FA0A48FFF7DCFA02222E
:103E100041460848FFF72AFB7BE72293E9E4012BA0
:103E20007FF703AE00230C93D1E54FF0000A4FF06B
:103E3000010B65E5783000200121FFF701BC00216E
:103E400008B5FFF7FDFBB0FA80F0400908BD00009F
:103E50002DE9F04F2DED028B04468DB028B92120BD
:103E60000DB0BDEC028BBDE8F08FC16A0029F6D120
:103E7000D0ED057A076AB8EEE78A17F0010514BF9E
:103E80004FF480634FF40063DFEDA90AB0F85020CF
:103E9000D0F840A008EE902AC26BBB4228EE208AE0
:103EA00002FB0AFBC66C0B970A92C0F2B78002684D
:103EB000BDF828801FFA8AF9002D40F09C8107EB9D
:103EC000D77A4FEA6A07CAF34F0A05232946CDE994
:103ED000008A9848FFF778F90523CDE9009AA2698E
:103EE00001219448FFF770F9226B002A00F08F80BF
:103EF000A38E0093022319468E48FFF755F9CDE9AA
:103F000000890123A26B03218A48FFF75DF9DFEDE9
:103F1000880A0021B0EE600A8648FFF700F9F0EE4B
:103F2000480AB0EE480A01218248FFF7F8F8B0EEDF
:103F3000680A03217F48FFF7DEF8324604217D48F6
:103F4000FFF7C9F8002640F22D2332463146794862
:103F50000093CDE901663346FFF748F9764B40F20E
:103F6000D712012173480093CDE90166734BFFF727
:103F70003DF940F2D7120221CDE90166704B6D4840
:103F80000096FFF733F9002D46D14A220321CDE9EF
:103F900001556C4B67480095FFF728F9042600256A
:103FA0004FF0010A684BF6B240F2D7123146CDE924
:103FB000013A6048654B0095FFF718F92B464246D9
:103FC00029465C48CDE90065FFF725F942F2020376
:103FD0004A465146CDE9006356482B46FFF71BF988
:103FE000022120235348CDE90013BAB25346FFF70C
:103FF00012F951464F48FFF73DF8A06B594694F926
:10400000533094F95220FFF775FA002028E7012376
:104010004F4A009302236EE70326C0E7B0EE600A22
:104020004C48FFF77CF8F0EE480AB0EE480A012150
:104030004848FFF774F803214648B0EE680AFFF7D6
:104040005AF8324604214348FFF745F805BB4FF0C4
:1040500005087F104FF001090026B7F5806F1ADCC4
:10406000354B40F2D71200213A480093CDE9016662
:10407000324BFFF7BBF840F2D7120121CDE90166C0
:104080002F4B34480096FFF7B1F8D5B1022122E05A
:104090004FF00108DEE700232F4810F8011B97FBC3
:1040A000F1F201FB127CBCF1000F06D1974201FB3B
:1040B00009F93FF4D4AE1746CFE701330B2BECD10F
:1040C000CDE602214A22CDE901551E4B214800953B
:1040D000FFF78CF80321002501261B4B40F2D71275
:1040E000CDE901361B48194B0095FFF77FF81FFA01
:1040F00089F3089329462B46089A1648CDE90065AE
:10410000FFF789F8BBB2099322233146CDE900635A
:10411000099A2B460F48FFF77EF8CDE905550D4F5C
:104120000A9B9D42BFF669AF0026079655E000BF87
:1041300000000038F43200200E7E08000600016006
:1041400006070550000005500000D0230503045069
:1041500096390408083400208B390408059B22682E
:1041600007991A44A3690B4408EE903A236B002B7D
:104170003ED033F8163008EE103A069B002106EBCD
:104180000309A36B38469944099B01360193089BA8
:1041900000934346FFF718F8099B18EE902A019305
:1041A000089B0121384600934346FFF70DF8012391
:1041B0004A46009303213846FEF7F6FFB0EE480A60
:1041C00005213846FEF797FF012338461946FEF7CA
:1041D00051FF079B0B9A134407935645BEDB069B82
:1041E0000B9A53440693059B01351344059397E7B7
:1041F00040F20003BFE71FFA87FA0123CDE9008AE6
:104200000348FEF7E1FF0123CDE9009A67E600BF0E
:10421000F432002030B50446F8B930BD54F82350CC
:1042200007EE905AF8EEE77A67EE877AF4EEE67AD0
:10423000F1EE10FA0FDCF4EE467AF1EE10FA48BF18
:104240002120F3EE677A17EE905A21F813500133CC
:104250009342E3D1E1E72120F3E700239FED037AC6
:104260001846DFED036A9FED036AF1E700000038AE
:1042700000E07F4700E07FC738B50022164B51ECC5
:10428000100B1FF01DFC10A3D3E9002304460D46BC
:104290001FF0A6FE70B90EA3D3E9002320462946DD
:1042A0001FF080FE58B92046294620F0BBFB00EEE7
:1042B000100A38BD47F6FF3300EE103AF9E74FF623
:1042C000FF33F9E7AFF300800000000000FCEF408F
:1042D0000000000000FCEFC00000E04070B560B3DB
:1042E000026AD30755BF4FF400614FF4806102EBBF
:1042F000D273134658BF5B1091421FDA01220DE0C2
:104300000021194E16F8015B93FBF5F405FB143000
:1043100068B9A34205FB02F20DD02346B3F5806FC6
:10432000EEDCB2F5806FCCBF0020012003E001314C
:104330000B29E7D1002000F0010070BDC36B013BE9
:10434000B3F5806F0DD2036C013BB3F5806F08D2DB
:10435000002A06DD406BB0F5806F8CBF0020012085
:10436000EBE70020E9E700BF8B3904082DE9F04FA7
:10437000D0E90C922DED048BC3B02192C26A036880
:104380002292826A339323928268C3682B92426995
:104390001F932C920022036990ED098A0E93836982
:1043A000D0ED088A2A93C369D0F804B02093036C37
:1043B00028911393C36B0F9390F8383041922BB927
:1043C000139B0F9A13431CBF21234193289B33B1A6
:1043D000DDE92B321343DB0744BF21234193419B8B
:1043E0001793002B3ED19E48FFF73CF8239A1F9B62
:1043F0009B1A0F9A134493FBF9F3229A35930E9B61
:104400009B1A139A1344219A93FBF2F33693209B41
:1044100003FB0BF316930E9B03FB0BF311930BFBA8
:1044200002F33793119B1F9A09FB03F338930E9BFA
:1044300009FB03F30BFB03F33C93119B53432A9AB1
:104440003A93169B53433D93179B0B934DF60003F2
:1044500009EE103A0B9B209A934209DB289B0BB183
:10446000FEF720FE179843B0BDEC048BBDE8F08F3B
:104470000B9A219B22995343139A9A1A2492139AC6
:10448000D31A23EAE373249A14930E9B9B1A149A6B
:104490009942D4BFC2EB0102C2EB03022D92249ACF
:1044A000002A1BDB369A0B9922989842C8BF0A460D
:1044B00013461A930B9A1A9B9B1A03F1010ADDE922
:1044C0003732BAF1010FD8BF1346299300232A9A35
:1044D000934205DB1A9B01330B93BBE70B9BE8E789
:1044E00009FB03F20F99239C501A8A1A1F9922EA9A
:1044F000E272091A8C42D4BFC2EB0404C2EB01047D
:104500000028099460DB3598239C8C42C8BF18466C
:104510001B901B99C91A1891013110911899002903
:104520005FD0BAF1010F5CDD0999894500F0208266
:104530004CDD0125A9EB01061099012907DD09FBD6
:1045400005F109983044814201D028214191109908
:104550000F9CA942A8BF29463491169901FB05F08A
:10456000B0F5006F05F1FF31B8BF00211E91013198
:1045700032911099BAF1010FC8BF514689B23091FA
:1045800003FB09F1091B0A44249C149921440E9C45
:1045900004FB02120BFB02F20B992792209A03FBF9
:1045A00002130BFB03F326930346169AB0F5006F34
:1045B000A8BF13461D9300230D930D9B349A93427D
:1045C00012DB1B9B013382E71B93A2E7099991FB46
:1045D000F9F509FB1516002EAED00135A9EB06063C
:1045E000AAE701250026B2E70D9B109A9342C4BFAB
:1045F00028234193189B0D9A01339B1A93FBF5F2E4
:1046000005FB1233002B18BF0132012A159200F06E
:10461000A881BAF1010F05DC0EB128234193099B53
:104620000A9605E00A96DDE909321344159A5343C8
:104630001293329B159A53439BB23193269B199345
:10464000279B259300231C931C9B339A934280F253
:104650007A81002348E1099B129300230A93E8E73B
:104660001C350020199A0C9B9B182F9344BF2823BC
:104670004193BBF1000FBCBF282341931D9B259A9A
:10468000002BBCBF282341930C9B03EB0208013392
:104690005B4580F23A81119B4BEA0307299B1F433C
:1046A0001D9B1F432F9B1F4347EA0807FF4307F04B
:1046B00001077B1C3B939BFBF3F32E93119B7A1C0E
:1046C00093FBF2F1299BAC4C93FBF2F21D9B3E92C3
:1046D0007A1C93FBF2F3204639933F91FEF701FEDB
:1046E000002F0CBF012305232E9A3F9905923E9A75
:1046F00041AF0392BDF8B42004910292BDF8482066
:1047000006970192309A002100922B9AD4F8680201
:1047100042443E93FEF70EFE2E9B4FF0000804939A
:10472000399B1FFA8AF2039301230293319B2C9940
:1047300001922F9A00930697CDF814800A443E9B6D
:104740000121D4F86802FEF7F5FD4DF60003F0EE06
:10475000490A00EE103A4146D4F86802FEF7D5FC4B
:10476000F8EEE80AF3EE600A0321B0EE600AD4F82E
:104770006802FEF7CAFCF8EEC80AF3EE600A0421EC
:10478000B0EE600AD4F86802FEF7BFFC3A46514624
:104790002046FEF76BFD3A4620461599FEF766FD6A
:1047A00043464FF0805241212046CDE90087FEF775
:1047B000A4FD3A4620460999FEF758FD3A462046A0
:1047C0002D99FEF753FD40F20A2340F253116B4A34
:1047D0002046CDE90087FEF790FD2046FEF7F3FD69
:1047E000022241462046FEF741FE2046FEF7EBFD41
:1047F000BAF1010F04DC012241462046FEF736FEE5
:104800000A9B002B04DD022200215B48FEF72EFEEE
:104810000A9B41AA012BA3F102044FF01D6340F251
:10482000D511CDE900325448CCBF4FF48573002335
:10483000534AFEF762FD1E9B002B1DDD41AF19465A
:104840003A464D48FEF712FD3A4601214A48FEF726
:104850000DFD002348481A46194600930197FEF7BC
:104860004CFD4548FEF7AFFD012243481146FEF7D7
:10487000FDFD4148FEF7A7FD002C17DD012C41AAE4
:1048800045D121463C48FEF7F1FC002141AB0193A4
:104890000A460B4638480091FEF72FFD3648FEF7D2
:1048A00092FD022200213448FEF7E0FD3248FEF777
:1048B0008AFD022201213048FEF7D8FDBAF1010F2E
:1048C00004DD012200212C48FEF7D0FD2A48FEF726
:1048D0007AFD419B002B42D1289B13B12648FEF75D
:1048E0008BFD0C9B3B9A13440C930C9B5B45FFF692
:1048F000B9AE1C9B3A9A01331C93259B1344259314
:104900003D9A199B134419939EE60027D1E60A9B12
:104910001948D91EFEF7AAFC41AA01211648FEF744
:10492000A5FC002141AB0A460091019312480B46B9
:10493000FEF7E3FC1048FEF746FD022200210E4878
:10494000FEF794FDAAE70D9B3C9A01330D93279B3C
:1049500013442793169A269B134426932DE6179308
:1049600080E5BAF1010F7FF776AE00230A935AE68D
:1049700000260125EBE500BF1C35002002000110D8
:10498000030401500121FFF7F1BC002108B5FFF736
:10499000EDFCB0FA80F0400908BD4FF09A42536830
:1049A000D907FCD54FF09A4213695B07FCD57047D5
:1049B00041F268034FF08041074AD1504FF09A43CB
:1049C0000121064A116003F5815201F54021116071
:1049D000034A1268DA607047008000400410004DFE
:1049E0008C2000200C4B9B6E580013D54FF09A433F
:1049F0005A68D1070ED5D968084A11600121084AC2
:104A000011605A689207FCD442F268034FF080416B
:104A1000014AD150704700BF008000408C20002028
:104A20000420004D8B1E012B01D8FFF7DBBF0129AD
:104A300001D8FFF7BDBF704708B50449044804F02A
:104A400025F8BDE80840FFF7B3BF00BF9839040858
:104A500098370020FFF7A1BFFFF79FBF7047000006
:104A600038B5124B05461B78DBB1E0B101F08BFC89
:104A70000F4A00231146147B54B92B6001251A01FB
:104A800001EB03131D738C5001F083FC204638BDED
:104A90000133082B02F11002EDD101F07AFC054838
:104AA000F5E70548F3E70548F1E700BF20390020A6
:104AB000A0370020048000F0028000F0018000F0A8
:104AC0000D4B10B51B78044693B1072812D801F09E
:104AD0005AFC0A4B03EB04131A7B2AB100241C7303
:104AE00001F057FC204610BD01F053FC0448FAE7E2
:104AF0000448F8E70448F6E720390020A0370020F2
:104B0000068000F0028000F0018000F0154B13B524
:104B10001868002301908DF8043001F034FC124B2A
:104B20001C7824B101F035FC104802B010BD012200
:104B30001A7001F02EFC0E4B01A81C731C7783F831
:104B40002C4083F83C4083F84C4083F85C4083F869
:104B50006C4083F87C4008238DF8073002F088FA17
:104B60002046E2E7A039040820390020038000F045
:104B7000A0370020F8B50D4D2D7885B1072810DC41
:104B80000B4D060105EB0014277B67B1AB510025E7
:104B9000069BA560636002F09DFA2846F8BD0548B3
:104BA000FCE70548FAE70548F8E700BF2039002090
:104BB000A0370020028000F0018000F0078000F0A4
:104BC0000A4A08B5127852B107280AD8084A02EBF7
:104BD00000131B7B3BB102F0CDFA002008BD054855
:104BE000FCE70548FAE70548F8E700BF2039002050
:104BF000A0370020028000F0018000F0078000F064
:104C00002DE9F843174B1F6D5B6D1F4000D5FEE784
:104C100001260025144CDFF85480DFF85490374209
:104C200017D02368C8F800609BB1A16828460131FD
:104C30006268A1609847637B012B0AD148B909EBF0
:104C400045131A7B60F341021A731A7F60F3410225
:104C50001A770135082D4FEA460604F11004DED11B
:104C6000BDE8F88300000440A03700205020044035
:104C700020380020024B1968024B186836F0DCBE61
:104C800094200020902000207047000037B592004B
:104C900004460D4601923EF013FE431C0BD060B952
:104CA00029462046019A1FF079FF0028044808BFD2
:104CB000002003B030BD0348FBE70348F9E700BF1D
:104CC00010E000F021E000F024E000F013B504460D
:104CD00001A802F0C7FA9DF80630012223804FF4A4
:104CE000807300206380054B9B680A3303F01F0329
:104CF00002FA03F3636002B010BD00BF0080E00F52
:104D000002F05EBA08B502F047FA002008BD10B5FF
:104D1000044644EA010313F00303084609D1934211
:104D200001D1002010BD54F8231040F823100133A6
:104D3000F5E7214692001FF03FFFF2E710B5044669
:104D40003EF0C6FD431C15D0B0B90C4B20469B6805
:104D50000A3303F01F020123934023F0030323448B
:104D6000984201D1002010BD50F8042B0132F7D039
:104D70000348F8E70348F6E70348F4E70080E00F4C
:104D80000EE000F021E000F024E000F008B501F0B2
:104D9000F3FA014B186008BDC06A0020014B186887
:104DA00001F0EEBAC06A00200A460139014403F05E
:104DB000DBBC000010B5044601F0E5FA124B134AC3
:104DC000596A126894422CBF0A198A1892B2196B58
:104DD0009A66102142F2140299509A690A439A6124
:104DE00001F0D7FA0A4A0B4913783BB1002313703C
:104DF000054A936923F01003936110BD0B6923F0FA
:104E000004030B6130BFEFE700800440683F0020DF
:104E10006C3F002000ED00E070B5012488B00E2248
:104E2000002104A81FF0EFFE0D22002168468DF836
:104E300010401FF0E8FE02232146264C24208DF866
:104E4000063000F05FFB6A460021204602F0BAFA05
:104E5000236B4FF6FF73204EE36100233546ADF818
:104E60001230204604A902F05CFA4FF4806000F092
:104E700065FBBDF812300133B0FBF3F09BB2B3F524
:104E8000806F3060ADF8123002D2144B9842E8D8EF
:104E9000002000F053FB1249124CB1FBF0F12868DE
:104EA0000025E1FB00450023204629460E4A1FF05D
:104EB00097FA0E4B074A186000200D4B1870936943
:104EC00023F01003936110220A4BC3F880211A606B
:104ED00008B070BD00800440643F002080841E0044
:104EE00000B0710B20A1070040420F00683F002076
:104EF0006C3F002000E100E0F8B50025104B114C9C
:104F00001968114AE0FB01450023204629461FF09D
:104F100067FA4FF6E85604460D460027AF4208BF31
:104F2000A64205D3A0B208B1FFF744FF0020F8BDA8
:104F30004FF6E850FFF73EFFA41B65EB0705EDE7D2
:104F4000643F002020A1070040420F00054B5A6932
:104F5000D20606D542F21402102199500122024BCA
:104F60001A707047008004406C3F0020054A1368A7
:104F7000DB06FCD44FF04023D3F88400C0F381104B
:104F8000704700BF844000402E4B98424AD022D840
:104F90002D4B984240D014D82C4B984239D00AD887
:104FA0002B4B984232D02B4B98422FD02A4B984211
:104FB0002CD000207047294B9842FAD1284B186F0B
:104FC0007047284B98422AD0274B9842F1D1244B66
:104FD000D3F880007047254B98422BD009D8244B3A
:104FE000984223D0234B9842E3D11D4BD3F88C0039
:104FF0007047214B984221D003F5740303F51053F9
:105000009842D6D1164BD3F898007047144B986D40
:105010007047134B586E7047114B586F7047104BC9
:10502000986F70470E4BD3F8840070470C4BD3F841
:10503000880070470A4BD3F890007047084BD3F8AC
:10504000940070470048E8010024F400C0CF6A00D3
:1050500080841E0000093D0040420F00405DC600F4
:105060000080E00FC0EA210180BA8C01007E560367
:1050700080D54302006CDC020090D00338B5174B9A
:105080000546D3F820310C4603F00703013B052BFE
:1050900020D8DFE803F0030B130F171BFDF734FED6
:1050A000052305B1286004B1237038BDFDF768FE03
:1050B0000323F6E7FDF780FE0723F2E7FDF778FE0E
:1050C0000223EEE7FDF720FE0623EAE7FDF758FE90
:1050D0000423E6E700231846E3E700BF0080004012
:1050E00038B5124B0546D3F828310C4603F00703B8
:1050F000013B032B17D8DFE803F0020E120AFDF77D
:1051000003FE052305B1286004B1237038BDFDF707
:1051100053FE0723F6E7FDF733FE0323F2E7FDF71F
:1051200047FE0223EEE700231846EBE7008000402D
:1051300073B50D460021124A0191D2F8804106460E
:1051400004F00304022C13D0032C0CD0012C14D136
:1051500001A8FFF793FF10230EB1019A326005B149
:105160002B7002B070BDFDF727FE07230190F3E717
:10517000FDF71EFE23460190EEE70B46ECE700BF6D
:1051800000800040002337B50193154B0546D3F846
:1051900020320C4603F00703013B032B1ED8DFE847
:1051A00003F0020E1318002101A8FFF799FF122344
:1051B0000DB1019A2A6004B1237003B030BDFDF730
:1051C000FBFD07230190F3E7FDF738FE0A2301906A
:1051D000EEE7FDF739FE09230190E9E70023E7E751
:1051E0000080004038B5104B0546D3F840310C46DE
:1051F00003F00303022B0BD0032B0DD0012B0FD197
:10520000FDF71CFE0A2305B1286004B1237038BDE8
:10521000FDF71AFE0923F6E7FDF713FE0C23F2E76C
:1052200000231846EFE700BF00800040002337B599
:105230000193164B0546D3F860320C4603F0070382
:10524000013B032B1FD8DFE803F0020E19140021E5
:1052500001A8FFF713FF10230DB1019A2A6004B1D2
:10526000237003B030BD002101A8FFF7BBFF11235D
:10527000F2E7FDF7A1FD07230190EDE7FDF798FDAB
:1052800002230190E8E70023E6E700BF008000402A
:10529000002337B50193164B0546D3F894320C46DC
:1052A00003F00703013B032B1FD8DFE803F0020ED6
:1052B0001914002101A8FFF7E1FE10230DB1019A96
:1052C0002A6004B1237003B030BD002101A8FFF7AC
:1052D00089FF1123F2E7FDF76FFD07230190EDE74A
:1052E000FDF766FD02230190E8E70023E6E700BF33
:1052F0000080004038B5134B0546D3F800320C4609
:1053000003F00703013B032B18D8DFE803F0020A80
:105310000E12FDF793FD0A2305B1286004B1237036
:1053200038BDFDF791FD0923F6E7FDF78AFD0C2353
:10533000F2E7FDF70FFD0F23800AEDE70023184683
:10534000EAE700BF0080004038B5134B0546D3F8AC
:1053500008320C4603F00703013B032B18D8DFE8A3
:1053600003F0020A0E12FDF769FD0A2305B1286059
:1053700004B1237038BDFDF767FD0923F6E7FDF79B
:1053800060FD0C23F2E7FDF7E5FC0F23800AEDE753
:1053900000231846EAE700BF0080004038B5104BF4
:1053A0000546D3F840320C4603F00303022B0BD022
:1053B000032B0DD0012B0FD1FDF740FD0A2305B1C2
:1053C000286004B1237038BDFDF73EFD0923F6E7E0
:1053D000FDF737FD0C23F2E700231846EFE700BF87
:1053E0000080004038B5104B0546D3F860310C46BC
:1053F00003F00303022B0BD0032B0DD0012B0FD195
:10540000FDF71CFD0A2305B1286004B1237038BDE7
:10541000FDF71AFD0923F6E7FDF713FD0C23F2E76C
:1054200000231846EFE700BF0080004070B5054636
:1054300014460E4600F0A0FF2B6883EA040202EA3D
:1054400006014B402B60BDE8704000F099BF0000A2
:10545000B0F5207F1FD009D8B0F5007F15D003D854
:1054600068B1B0F5C07F0AD000200CE0B0F5607FD5
:10547000FAD10B4BD3F88000C0F3011003E0084BC6
:10548000186FC0F3033001307047054BD3F890001C
:10549000C0F30460F7E7024B186FC0F38020F2E717
:1054A0000080004038B5044641F268034FF4803074
:1054B0000D4AD0500020FFF7CBFF41F671320B4B65
:1054C0006043DD690A4CDA635A68A04205F480350E
:1054D00022F4401203D9012918BF42F480125A6005
:1054E0000DB10022DA6338BD0080004000000340A7
:1054F000005A620208B5FDF73FFCBDE808400021F4
:10550000FFF7D0BF430905D0012B0DD0022B094B6B
:1055100018BF002300F01F0041B103F580530122A2
:1055200002FA00F018607047034BF3E703F50053ED
:10553000F5E700BF68800040648000401FB500228E
:1055400080280446029200F098802AD8002800F0B3
:105550009880A0F12004A3B23D2B35D83D2C33D840
:10556000DFE804F08F9B8F9BB4B4B4B4B49BBE3C13
:10557000D4623C9B9B9B32323232323232329B9B22
:105580009B6ADE9B32323232323232323232323245
:1055900032B48F8F8FD93C3CE3794DB932323232FD
:1055A0003286B0F5B06F00F09B802DD8B0F5207F2B
:1055B00073D00CD8B0F5C07F63D0B0F5007F63D056
:1055C000B0F5807F00F09180029804B010BDB0F576
:1055D000607F68D00DD8B0F5407FF5D1FDF7BAFBFC
:1055E00002464FF42070FFF733FFB2FBF0F04008A3
:1055F00045E0B0F5806F69D0B0F5A06FE4D100212F
:1056000002A8FFF7BFFDDFE7B0F5106F00F0838061
:1056100017D8B0F5E06F00F083800AD8B0F5C06FFE
:1056200074D0B0F5D06FCFD1002102A8FFF762FE91
:10563000CAE7B0F5F06FC7D1002102A8FFF7D2FE8C
:10564000C2E7B0F5406F46D00FD8B0F5206F6CD0F0
:10565000B0F5286FB8D10021364B0391D3F87032E2
:1056600003F00303012B48D14CE0B0F5486FABD1F8
:10567000002102A8FFF70CFEA6E7FDF751FB029000
:10568000A2E7FDF767FBFAE7FDF74AFB0246204673
:10569000FFF7DEFEB2FBF0F0F1E7FDF75BFB024641
:1056A0004FF42070F4E7234BD3F8803003F003036A
:1056B000012B04D0022B06D04FF46070E8E7FDF711
:1056C0002FFB0246F8E7FDF777FBFAE7002102A877
:1056D000FFF7D4FC78E7002102A8FFF701FD73E78C
:1056E000002102A8FFF724FD6EE7134B03921B680D
:1056F0005B0705D5FDF72EFB0390039B029363E741
:105700000DF1070103A8FFF76DFDF6E7002102A8E0
:10571000FFF768FD58E7002102A8FFF715FE53E7E1
:10572000002102A8FFF73AFE4EE7002102A8FFF78A
:105730007DFD49E70080004010E000E008B58020D2
:10574000FFF7FCFE044B98429FBF42F270034FF4F8
:105750008031024AD15008BD005A620200800040E8
:10576000002307B5B0F5807F8DF8023000F0CD80C2
:1057700066D85D2857D84C2808D82D2848D8232823
:105780002CD89DF8020003B05DF804FB4D381028BA
:10579000F7D801A353F820F0FF58000883570008FA
:1057A0008357000883570008AB5800088357000848
:1057B00083570008A9590008CB580008675800080B
:1057C0009D59000883570008835700088357000835
:1057D0008357000883570008B55900082438092862
:1057E000CFD801A353F820F0FF580008FF58000855
:1057F000FF580008FF580008FF58000883570008AA
:10580000F358000883570008875800083D590008DE
:105810003D2800F08D803E28B3D100200DF102011B
:10582000FFF7BCFDADE78028ABD1684B1B6F03F0E1
:105830000703013B032BA4D8DFE803F05955939BE2
:10584000B0F5F06F74D024D8B0F5B06F51D010D847
:10585000B0F5607F00F0918093D3B0F5806F4ED0AB
:10586000B0F5A06F8DD100200DF10201FFF78AFC89
:1058700087E7B0F5D06F61D0B0F5E06FCDD0B0F56F
:10588000C06F7FF47EAF00200DF10201FFF7AAFC8C
:1058900077E7B0F5206F00F087800CD8B0F5086F7F
:1058A00052D0B0F5106F7FF46CAF00200DF1020103
:1058B000FFF74AFD65E7B0F5406F6FD0B0F5486F70
:1058C00078D0B0F5286F7FF45CAF00213F4B019199
:1058D000D3F8703203F00303012B71D0022B14BFF5
:1058E0000B46152300E005238DF8023049E702231B
:1058F000FAE700200DF10201FFF71AFC41E7002052
:105900000DF10201FFF7BAFB3BE70193304B1B6837
:105910005B0707D5FDF71EFA0D238DF803309DF8C0
:105920000330E1E70DF1030101A8FFF75BFCF6E7A7
:1059300000200DF10201FFF755FD22E700200DF1D7
:105940000201FFF7D7FC1CE7204BD3F8003103F02E
:105950000303022B07D0032B09D0012B0BD1FDF73A
:105960000FFA0323C0E7FDF76FFA0923BCE7FDF741
:105970001DFA0823B8E70123B6E7144AD2F88020BD
:1059800002F00302012A05D0022AADD1FDF714FA74
:105990000723A9E7FDF7C4F90E23A5E700200DF1C1
:1059A0000201FFF79DFBECE600200DF10201FFF77D
:1059B0003DFCE6E600200DF10201FFF769FCE0E6A0
:1059C00001A8FFF70FFC11238EE700BF0080004005
:1059D00010E000E008B5FFF7C3FE092813D00A382D
:1059E000C0B2012812D841F264034FF48001094A81
:1059F0004FF6FF70D150084B5B6A13F0010F18BFD0
:105A00004FF4FA7008BD054B1888FBE74FF6FF709E
:105A1000F8E700BF0080004000400240B6200020B0
:105A200038B504468020FFF79BFE032800F08580F0
:105A300041F264034FF480114F4AD15045F60E03F2
:105A40004E4A4FF0A061C2F8803041F22803D15095
:105A500042F228034FF48031D150916D11F480311E
:105A6000FBD1637820781B0543EA0063A079444D9D
:105A70000343E07843EA0043207943EA0033607946
:105A800043EA801313619369E07A03F00043034310
:105A9000E07943EA8063207A43EA0063607A43EA6C
:105AA0000043A07A43EA00239361136A627B207B60
:105AB000002A18BF082123F00F0343EA020343EA38
:105AC000800341EA03012D4B196237D1A27C996A08
:105AD000A07BD2000D4042EA4012E17B2A4342EA19
